{
  "address": "0x0F0e446D88918A44F17912fb42d566bD68093Fc9",
  "abi": [
    {
      "inputs": [
        {
          "internalType": "address",
          "name": "exampleExternalContractAddress",
          "type": "address"
        }
      ],
      "stateMutability": "nonpayable",
      "type": "constructor"
    },
    {
      "anonymous": false,
      "inputs": [
        {
          "indexed": false,
          "internalType": "uint256",
          "name": "deadline",
          "type": "uint256"
        }
      ],
      "name": "DeadlineSet",
      "type": "event"
    },
    {
      "anonymous": false,
      "inputs": [
        {
          "indexed": true,
          "internalType": "address",
          "name": "staker",
          "type": "address"
        },
        {
          "indexed": false,
          "internalType": "uint256",
          "name": "amount",
          "type": "uint256"
        }
      ],
      "name": "Stake",
      "type": "event"
    },
    {
      "inputs": [
        {
          "internalType": "address",
          "name": "",
          "type": "address"
        }
      ],
      "name": "balances",
      "outputs": [
        {
          "internalType": "uint256",
          "name": "",
          "type": "uint256"
        }
      ],
      "stateMutability": "view",
      "type": "function"
    },
    {
      "inputs": [],
      "name": "deadline",
      "outputs": [
        {
          "internalType": "uint256",
          "name": "",
          "type": "uint256"
        }
      ],
      "stateMutability": "view",
      "type": "function"
    },
    {
      "inputs": [],
      "name": "exampleExternalContract",
      "outputs": [
        {
          "internalType": "contract ExampleExternalContract",
          "name": "",
          "type": "address"
        }
      ],
      "stateMutability": "view",
      "type": "function"
    },
    {
      "inputs": [],
      "name": "execute",
      "outputs": [],
      "stateMutability": "nonpayable",
      "type": "function"
    },
    {
      "inputs": [],
      "name": "executed",
      "outputs": [
        {
          "internalType": "bool",
          "name": "",
          "type": "bool"
        }
      ],
      "stateMutability": "view",
      "type": "function"
    },
    {
      "inputs": [],
      "name": "getCurrentTime",
      "outputs": [
        {
          "internalType": "uint256",
          "name": "",
          "type": "uint256"
        }
      ],
      "stateMutability": "view",
      "type": "function"
    },
    {
      "inputs": [],
      "name": "isExecuted",
      "outputs": [
        {
          "internalType": "bool",
          "name": "",
          "type": "bool"
        }
      ],
      "stateMutability": "view",
      "type": "function"
    },
    {
      "inputs": [],
      "name": "openForWithdraw",
      "outputs": [
        {
          "internalType": "bool",
          "name": "",
          "type": "bool"
        }
      ],
      "stateMutability": "view",
      "type": "function"
    },
    {
      "inputs": [],
      "name": "stake",
      "outputs": [],
      "stateMutability": "payable",
      "type": "function"
    },
    {
      "inputs": [],
      "name": "threshold",
      "outputs": [
        {
          "internalType": "uint256",
          "name": "",
          "type": "uint256"
        }
      ],
      "stateMutability": "view",
      "type": "function"
    },
    {
      "inputs": [],
      "name": "timeLeft",
      "outputs": [
        {
          "internalType": "uint256",
          "name": "",
          "type": "uint256"
        }
      ],
      "stateMutability": "view",
      "type": "function"
    },
    {
      "inputs": [],
      "name": "withdraw",
      "outputs": [],
      "stateMutability": "nonpayable",
      "type": "function"
    },
    {
      "stateMutability": "payable",
      "type": "receive"
    }
  ],
  "transactionHash": "0xb35ebfc40572f3a272b13d6b5406ed99bf9ccc3ea56ea51e0cf9bd85f5181ba3",
  "args": [
    "0x94cFDC94402137660e7863CA89B51F46d9990ccD"
  ],
  "numDeployments": 1,
  "solcInputHash": "f01fd59c3cb837a3a145684bd30848ba",
  "bytecode": "0x608060405234801561001057600080fd5b50604051610b0a380380610b0a83398101604081905261002f916101a0565b600080546001600160a01b0319166001600160a01b038316179055610057426203f480610229565b60028190556040519081527f337b880688eb06df8adb77036a6c8def1da2b520bc901c04b3a5a23f9ae130399060200160405180910390a16100d86040518060400160405280601f81526020017f43757272656e742054696d652028626c6f636b2e74696d657374616d70293a008152504261011c60201b61063c1760201c565b6101166040518060400160405280601081526020016f2232b0b23634b7329039b2ba103a379d60811b81525060025461011c60201b61063c1760201c565b5061024d565b61016582826040516024016101329291906101ce565b60408051601f198184030181529190526020810180516001600160e01b03908116632d839cb360e21b1790915261016916565b5050565b61017c8161017f60201b6106811760201c565b50565b60006a636f6e736f6c652e6c6f679050600080835160208501845afa505050565b6000602082840312156101b1578081fd5b81516001600160a01b03811681146101c7578182fd5b9392505050565b6040815260008351806040840152815b818110156101fb57602081870181015160608684010152016101de565b8181111561020c5782606083860101525b50602083019390935250601f91909101601f191601606001919050565b6000821982111561024857634e487b7160e01b81526011600452602481fd5b500190565b6108ae8061025c6000396000f3fe6080604052600436106100ab5760003560e01c80633a4b66f1116100645780633a4b66f1146101855780633ccfd60b1461018d57806342cde4e8146101a257806361461954146101be5780639876a643146101d35780639f75f227146101ed57600080fd5b80631300a6d1146100bf5780631c9feaa5146100e757806327e235e31461011057806329cb924d1461013d57806329dcb0cf1461015057806331a38c891461016657600080fd5b366100ba576100b8610225565b005b600080fd5b3480156100cb57600080fd5b506100d4610332565b6040519081526020015b60405180910390f35b3480156100f357600080fd5b50600354610100900460ff165b60405190151581526020016100de565b34801561011c57600080fd5b506100d461012b36600461074a565b60016020526000908152604090205481565b34801561014957600080fd5b50426100d4565b34801561015c57600080fd5b506100d460025481565b34801561017257600080fd5b5060035461010090610100900460ff1681565b6100b8610225565b34801561019957600080fd5b506100b8610356565b3480156101ae57600080fd5b506100d4670de0b6b3a764000081565b3480156101ca57600080fd5b506100b8610498565b3480156101df57600080fd5b506003546101009060ff1681565b3480156101f957600080fd5b5060005461020d906001600160a01b031681565b6040516001600160a01b0390911681526020016100de565b60025442106102715760405162461bcd60e51b8152602060048201526013602482015272111958591b1a5b99481a185cc81c185cdcd959606a1b60448201526064015b60405180910390fd5b3360009081526001602052604081208054349290610290908490610833565b909155505060405134815233907febedb8b3c678666e7f36970bc8f57abf6d8fa2e828c0da91ea5b75bf68ed101a9060200160405180910390a26103006040518060400160405280601481526020017329ba30b5b2903932b1b2b4bb32b210333937b69d60611b815250336106a2565b6103306040518060400160405280600e81526020016d20b6b7bab73a1039ba30b5b2b21d60911b8152503461063c565b565b600060025442106103435750600090565b42600254610351919061084b565b905090565b60035460ff166103a05760405162461bcd60e51b81526020600482015260156024820152744e6f74206f70656e20666f7220776974686472617760581b6044820152606401610268565b33600090815260016020526040902054806103f65760405162461bcd60e51b81526020600482015260166024820152754e6f2062616c616e636520746f20776974686472617760501b6044820152606401610268565b336000818152600160205260408082208290555190919083908381818185875af1925050503d8060008114610447576040519150601f19603f3d011682016040523d82523d6000602084013e61044c565b606091505b50509050806104945760405162461bcd60e51b81526020600482015260146024820152732330b4b632b2103a379039b2b7321022ba3432b960611b6044820152606401610268565b5050565b6002544210156104e15760405162461bcd60e51b8152602060048201526014602482015273111958591b1a5b99481b9bdd081c995858da195960621b6044820152606401610268565b600354610100900460ff161561052c5760405162461bcd60e51b815260206004820152601060248201526f105b1c9958591e48195e1958dd5d195960821b6044820152606401610268565b670de0b6b3a764000047106105b75760008054906101000a90046001600160a01b03166001600160a01b031663522e1177476040518263ffffffff1660e01b81526004016000604051808303818588803b15801561058957600080fd5b505af115801561059d573d6000803e3d6000fd5b50506003805461ff001916610100179055506105c5915050565b6003805460ff191660011790555b60408051808201909152601281527121b7b73a3930b1ba1032bc32b1baba32b21d60711b60208201526003546106039190610100900460ff166106e7565b60408051808201909152601281527127b832b7103337b9103bb4ba34323930bb9d60711b6020820152600354610330919060ff166106e7565b6104948282604051602401610652929190610811565b60408051601f198184030181529190526020810180516001600160e01b0316632d839cb360e21b179052610728565b60006a636f6e736f6c652e6c6f679050600080835160208501845afa505050565b61049482826040516024016106b89291906107c3565b60408051601f198184030181529190526020810180516001600160e01b031663319af33360e01b179052610728565b61049482826040516024016106fd9291906107ed565b60408051601f198184030181529190526020810180516001600160e01b031663c3b5563560e01b1790525b61073181610681565b50565b634e487b7160e01b600052605160045260246000fd5b60006020828403121561075b578081fd5b81356001600160a01b0381168114610771578182fd5b9392505050565b60008151808452815b8181101561079d57602081850181015186830182015201610781565b818111156107ae5782602083870101525b50601f01601f19169290920160200192915050565b6040815260006107d66040830185610778565b905060018060a01b03831660208301529392505050565b6040815260006108006040830185610778565b905082151560208301529392505050565b6040815260006108246040830185610778565b90508260208301529392505050565b6000821982111561084657610846610862565b500190565b60008282101561085d5761085d610862565b500390565b634e487b7160e01b600052601160045260246000fdfea2646970667358221220d9ec33734c607812e7401209d15c3b060c77b224dcba6d59b5ac412e3426df4564736f6c63430008040033",
  "devdoc": {
    "kind": "dev",
    "methods": {},
    "version": 1
  },
  "userdoc": {
    "kind": "user",
    "methods": {},
    "version": 1
  },
  "storageLayout": {
    "storage": [
      {
        "astId": 29,
        "contract": "contracts/Staker.sol:Staker",
        "label": "exampleExternalContract",
        "offset": 0,
        "slot": "0",
        "type": "t_contract(ExampleExternalContract)12"
      },
      {
        "astId": 33,
        "contract": "contracts/Staker.sol:Staker",
        "label": "balances",
        "offset": 0,
        "slot": "1",
        "type": "t_mapping(t_address,t_uint256)"
      },
      {
        "astId": 38,
        "contract": "contracts/Staker.sol:Staker",
        "label": "deadline",
        "offset": 0,
        "slot": "2",
        "type": "t_uint256"
      },
      {
        "astId": 40,
        "contract": "contracts/Staker.sol:Staker",
        "label": "openForWithdraw",
        "offset": 0,
        "slot": "3",
        "type": "t_bool"
      },
      {
        "astId": 42,
        "contract": "contracts/Staker.sol:Staker",
        "label": "executed",
        "offset": 1,
        "slot": "3",
        "type": "t_bool"
      }
    ],
    "types": {
      "t_address": {
        "encoding": "inplace",
        "label": "address",
        "numberOfBytes": "20"
      },
      "t_bool": {
        "encoding": "inplace",
        "label": "bool",
        "numberOfBytes": "1"
      },
      "t_contract(ExampleExternalContract)12": {
        "encoding": "inplace",
        "label": "contract ExampleExternalContract",
        "numberOfBytes": "20"
      },
      "t_mapping(t_address,t_uint256)": {
        "encoding": "mapping",
        "key": "t_address",
        "label": "mapping(address => uint256)",
        "numberOfBytes": "32",
        "value": "t_uint256"
      },
      "t_uint256": {
        "encoding": "inplace",
        "label": "uint256",
        "numberOfBytes": "32"
      }
    }
  }
}